:020000040800F2
:100000004806002089010008C5010008C701000852
:10001000C9010008CB010008CD0100080000000064
:10002000000000000000000000000000CF010008F8
:10003000D101000800000000D3010008D50100082C
:10004000D7010008D7010008D7010008D701000830
:10005000D7010008D7010008D7010008D701000820
:10006000D7010008D7010008D7010008D701000810
:10007000D7010008D7010008D7010008D701000800
:10008000D7010008D7010008D7010008D7010008F0
:10009000D7010008D7010008D7010008D7010008E0
:1000A000D7010008D7010008D7010008D7010008D0
:1000B000D7010008D7010008D7010008D7010008C0
:1000C000D7010008D7010008D7010008D7010008B0
:1000D000D7010008D7010008D7010008D7010008A0
:1000E000D7010008D7010008D7010008D701000890
:1000F000D7010008D7010008D7010008D701000880
:10010000D7010008D7010008D7010008D70100086F
:10011000D7010008D7010008D7010008D70100085F
:10012000D7010008D7010008D7010008D70100084F
:10013000D7010008D7010008D7010008D70100083F
:10014000D7010008D7010008D7010008D70100082F
:10015000D7010008D7010008D7010008D70100081F
:10016000D7010008D7010008D7010008D70100080F
:10017000D7010008D7010008D701000800000000DF
:10018000D7010008D701000816481749174B9942B4
:100190003CBF50F8042B41F8042BF8D314494FF01E
:1001A00000028B4238BF43F8042BFAD3DFF8440037
:1001B000016841F470010160BFF34F8FBFF36F8F8F
:1001C0000D480047FEE7FEE7FEE7FEE7FEE7FEE735
:1001D000FEE7FEE7FEE7FEE708480949094A0A4B41
:1001E0007047000040060008000000204800002082
:1001F0004806002088ED00E049040008480000207F
:10020000480600204802002048020020704770473E
:100210007047000042F20001C4F20201086820F0B9
:10022000070008600A6841F2000042F00202C4F2CE
:1002300002000A60016841F48071016001684905AB
:10024000FCD5416821F0F8514160416841F080518E
:100250004160016821F08071016000BF016889017F
:10026000FCD4C168142221F00301C160C16841F0CF
:100270000201C160C16862F30E21C160C168012240
:1002800062F30611C160C16821F0C061C160C1683C
:1002900041F08071C160016841F08071016000BF70
:1002A00001688901FCD5816821F0030181608168C2
:1002B00041F00301816000BF816801F00C010C294D
:1002C000FAD1816821F0F0018160816821F4E06158
:1002D0008160816821F460518160016821F0806152
:1002E000016000BF01684901FCD4016921F4FE41AD
:1002F0000161016941F4C0510161016941F40031BA
:100300000161016941F480310161016841F080615E
:10031000016000BF01684901FCD5D0F8881021F4C4
:100320004001C0F88810016E41F400110166704769
:1003300041F28800C4F2020050F8301C41F4003150
:1003400040F8301C016821F00C010160016841F0A7
:100350000401016050F83C1C41F0010140F83C1CD4
:100360004FF09040016821F0F0010160016841F018
:10037000A00101602021C4F60001086820F47F403C
:100380000860086840F4EE40086051F8180C40F02E
:10039000F00041F8180C51F8140C20F0F00041F86E
:1003A000140C51F81C2C44F2004022F00C02C4F250
:1003B000000041F81C2C016821F001010160016876
:1003C00021F010210160016821F4004101604168C1
:1003D00021F44051416042F28D01C160016841F059
:1003E0000C010160016A41F04001016243F608011D
:1003F000C4F201010A6842F0C0020A60016841F0DB
:1004000001010160C1698902FCD500BFC1694902CF
:10041000FCD5704744F21C42C4F2000261B14FF0B7
:10042000000C00BF13681B06FCD510F80C300CF153
:10043000010C8C459381F5D110684006FCD51068FD
:1004400020F0400010607047FFF7E4FEFFF770FFF8
:100450006848C16C41F0060121F00101C1646648A1
:10046000016840F6FC4221EA02010160634801682C
:1004700021F0FF0141F0550101605F485F4922EA28
:10048000020223EA03034A6922F00F024A6100F0E4
:10049000ABF803693E2BF0D04A6922F00F0242F01C
:1004A0000E024A6104B400F09FF804BC03693E2BBD
:1004B00027D14A6922F00F0242F00D024A6104B4CA
:1004C00000F092F804BC03693E2B1AD14A6922F06D
:1004D0000F0242F00B024A6104B400F085F804BC3C
:1004E00003693E2B0DD14A6922F00F0242F0070248
:1004F0004A6104B400F078F804BC03693E2B00D1D3
:10050000BBE70E2A02BF3C2B3D4F312559D00D2AA7
:1005100002BF3C2B3B4F322553D00B2A02BF3C2B52
:10052000394F33254DD0072A02BF3C2B374F412589
:1005300047D00E2A02BF3A2B354F342541D00D2A21
:1005400002BF3A2B334F35253BD00B2A02BF3A2B43
:10055000314F362535D0072A02BF3A2B2F4F42257F
:100560002FD00E2A02BF362B2D4F372529D00D2A2A
:1005700002BF362B2B4F382523D00B2A02BF362B38
:10058000294F39251DD0072A02BF362B274F432577
:1005900017D00E2A02BF0E2B254F2A2511D00D2A67
:1005A00002BF0E2B234F30250BD00B2A02BF0E2B80
:1005B000214F232505D0072A02BF0E2B1F4F4425AC
:1005C000FFD00D480D494A6922F00F024A610369C4
:1005D0003E2BFCD1C8F8005007F1040738464FF015
:1005E0000101FFF717FF48E749F69912013AFDD1DB
:1005F0007047000000100240000400480008004856
:100600000000002004000020080000200C00002052
:100610001000002014000020180000201C00002002
:100620002000002024000020280000202C000020B2
:100630003000002034000020380000203C00002062
:1006400064000000310000003200000033000000B0
:1006500041000000340000003500000036000000BA
:1006600042000000370000003800000039000000A0
:10067000430000002A0000003000000023000000BA
:08068000440000000A00000024
:0400000508000449A2
:00000001FF
