:020000040800F2
:100000000006002089010008C5010008C70100089A
:10001000C9010008CB010008CD0100080000000064
:10002000000000000000000000000000CF010008F8
:10003000D101000800000000D3010008D50100082C
:10004000D7010008D7010008D7010008D701000830
:10005000D7010008D7010008D7010008D701000820
:10006000D7010008D7010008D7010008D701000810
:10007000D7010008D7010008D7010008D701000800
:10008000D7010008D7010008D7010008D7010008F0
:10009000D7010008D7010008D7010008D7010008E0
:1000A000D7010008D7010008D7010008D7010008D0
:1000B000D7010008D7010008D7010008D7010008C0
:1000C000D7010008D7010008D7010008D7010008B0
:1000D000D7010008D7010008D7010008D7010008A0
:1000E000D7010008D7010008D7010008D701000890
:1000F000D7010008D7010008D7010008D701000880
:10010000D7010008D7010008D7010008D70100086F
:10011000D7010008D7010008D7010008D70100085F
:10012000D7010008D7010008D7010008D70100084F
:10013000D7010008D7010008D7010008D70100083F
:10014000D7010008D7010008D7010008D70100082F
:10015000D7010008D7010008D7010008D70100081F
:10016000D7010008D7010008D7010008D70100080F
:10017000D7010008D7010008D701000800000000DF
:10018000D7010008D701000816481749174B9942B4
:100190003CBF50F8042B41F8042BF8D314494FF01E
:1001A00000028B4238BF43F8042BFAD3DFF8440037
:1001B000016841F470010160BFF34F8FBFF36F8F8F
:1001C0000D480047FEE7FEE7FEE7FEE7FEE7FEE735
:1001D000FEE7FEE7FEE7FEE708480949094A0A4B41
:1001E000704700000C0600080000002000000020FE
:1001F0000006002088ED00E05D05000800000020FA
:100200000006002000020020000200207047704716
:10021000704700005E49096821F007015C4A1160DF
:100220001146096841F0020111605A49096841F418
:100230008071584A116000BF5649096801F4806115
:100240000029F9D010205349496821F0F851514A4A
:1002500051601146496841EA0061516011460968E0
:1002600021F08071116000BF4A49096801F00071F6
:10027000B1F1007FF8D04749C96821F00301454A30
:10028000D1601146C96841F00201D1601146C968C8
:1002900021F4FE4141F4A051D1601146C96821F01A
:1002A000700141F01001D1601146C96821F0C061B0
:1002B000D1601146C96841F08071D160114609686A
:1002C00041F08071116000BF3249096801F000718E
:1002D0000029F9D02F49896821F003012D4A916046
:1002E0001146896841F00301916000BF294989687E
:1002F00001F00C010C29F9D12649896821F0F0019F
:10030000244A91601146896821F4E06191601146A8
:10031000896821F4605191601146096821F080617B
:10032000116000BF1B49096801F08061B1F1806F65
:10033000F8D01849096921F4FE41164A11611146A5
:10034000096941F4C05111611146096941F4003154
:1003500011611146096941F4803111611146096842
:1003600041F08061116000BF0A49096801F08061B5
:100370000029F9D007498831096821F44001054A6C
:10038000C2F888101146096E41F4001111667047D9
:1003900000200240001002401648C06C40F00100EE
:1003A0001449C8644FF09040006820F0F0004FF00E
:1003B000904108600846006840F0A00008600846C8
:1003C000006A20F47F4008620846006A40F4EE406C
:1003D00008620846806840F0F00088600846C068FF
:1003E00020F0F000C8600846406820F00C0048602B
:1003F000704700000010024000B50D48806D40F4C9
:1004000000300B4988650A488830006820F00C00ED
:10041000C1F888000846D0F8880040F00400C1F810
:100420008800FFF7B9FF034800F01EF800BD000088
:10043000001002400044004030B504460D462A46F4
:100440002146024800F06AF830BD00000044004038
:100450004CF25030642242430723B2FBF3F100BF59
:100460004A1E111EFCD17047016821F00101016094
:10047000016821F010210160016821F40041016050
:10048000416821F44051416042F28D01C160016830
:1004900041F00C0101601E4988421BD1016841F006
:1004A00020010160016821F040010160016821F034
:1004B00010010160016821F080010160016821F4F0
:1004C00080710160016821F040010160016821F044
:1004D000010101600F49884209D1016A41F04001E0
:1004E00001620D49096841F0C0010B4A11600168C1
:1004F00041F00101016000BFC16901F40011002950
:10050000FAD000BFC16901F480010029FAD0704718
:10051000004C00400044004008380140F0B504465B
:100520000E46174600250CE000BFE06900F0800091
:100530000028FAD0705D20854FF49670FFF788FF91
:100540006D1CBD42F0D300BFE06900F04000002800
:10055000FAD0E06920F04000E061F0BDFFF75AFEFC
:10056000FFF74AFF2648C16C41F00601C1642548E7
:1005700001684FF2F00A45F2500B21EA0A0141EA04
:100580000B010160416821F0CC0141601E490A68FD
:1005900022F040620A604A6822F400524A604FF03A
:1005A000090303F0010403F0020503F0040603F05D
:1005B00008074FEA84044FEA85054FEA06164FEA1A
:1005C00007172C4434443C440E4844614FF0000A61
:1005D000A3F10203002B02DC4FF00903FFE70AF14D
:1005E000010A4FF4FA5B4FEA0B2BDA45F7DD0649B7
:1005F000D1F8108008F40058B8F5005FF7D0D0E7C4
:0C06000000100240000400480008004800
:040000050800055D8D
:00000001FF
