:020000040800F2
:100000003806002089010008C5010008C701000862
:10001000C9010008CB010008CD0100080000000064
:10002000000000000000000000000000CF010008F8
:10003000D101000800000000D3010008D50100082C
:10004000D7010008D7010008D7010008D701000830
:10005000D7010008D7010008D7010008D701000820
:10006000D7010008D7010008D7010008D701000810
:10007000D7010008D7010008D7010008D701000800
:10008000D7010008D7010008D7010008D7010008F0
:10009000D7010008D7010008D7010008D7010008E0
:1000A000D7010008D7010008D7010008D7010008D0
:1000B000D7010008D7010008D7010008D7010008C0
:1000C000D7010008D7010008D7010008D7010008B0
:1000D000D7010008D7010008D7010008D7010008A0
:1000E000D7010008D7010008D7010008D701000890
:1000F000D7010008D7010008D7010008D701000880
:10010000D7010008D7010008D7010008D70100086F
:10011000D7010008D7010008D7010008D70100085F
:10012000D7010008D7010008D7010008D70100084F
:10013000D7010008D7010008D7010008D70100083F
:10014000D7010008D7010008D7010008D70100082F
:10015000D7010008D7010008D7010008D70100081F
:10016000D7010008D7010008D7010008D70100080F
:10017000D7010008D7010008D701000800000000DF
:10018000D7010008D701000816481749174B9942B4
:100190003CBF50F8042B41F8042BF8D314494FF01E
:1001A00000028B4238BF43F8042BFAD3DFF8440037
:1001B000016841F470010160BFF34F8FBFF36F8F8F
:1001C0000D480047FEE7FEE7FEE7FEE7FEE7FEE735
:1001D000FEE7FEE7FEE7FEE708480949094A0A4B41
:1001E000704700005806000800000020380000207A
:1001F0003806002088ED00E049040008380000209F
:10020000380600203802002038020020704770476E
:100210007047000042F20001C4F20201086820F0B9
:10022000070008600A6841F2000042F00202C4F2CE
:1002300002000A60016841F48071016001684905AB
:10024000FCD5416821F0F8514160416841F080518E
:100250004160016821F08071016000BF016889017F
:10026000FCD4C168142221F00301C160C16841F0CF
:100270000201C160C16862F30E21C160C168012240
:1002800062F30611C160C16821F0C061C160C1683C
:1002900041F08071C160016841F08071016000BF70
:1002A00001688901FCD5816821F0030181608168C2
:1002B00041F00301816000BF816801F00C010C294D
:1002C000FAD1816821F0F0018160816821F4E06158
:1002D0008160816821F460518160016821F0806152
:1002E000016000BF01684901FCD4016921F4FE41AD
:1002F0000161016941F4C0510161016941F40031BA
:100300000161016941F480310161016841F080615E
:10031000016000BF01684901FCD5D0F8881021F4C4
:100320004001C0F88810016E41F400110166704769
:1003300041F28800C4F2020050F8301C41F4003150
:1003400040F8301C016821F00C010160016841F0A7
:100350000401016050F83C1C41F0010140F83C1CD4
:100360004FF09040016821F0F0010160016841F018
:10037000A00101602021C4F60001086820F47F403C
:100380000860086840F4EE40086051F8180C40F02E
:10039000F00041F8180C51F8140C20F0F00041F86E
:1003A000140C51F81C2C44F2004022F00C02C4F250
:1003B000000041F81C2C016821F001010160016876
:1003C00021F010210160016821F4004101604168C1
:1003D00021F44051416042F28D01C160016841F059
:1003E0000C010160016A41F04001016243F608011D
:1003F000C4F201010A6842F0C0020A60016841F0DB
:1004000001010160C1698902FCD500BFC1694902CF
:10041000FCD5704744F21C42C4F2000261B14FF0B7
:10042000000C00BF13681B06FCD510F80C300CF153
:10043000010C8C459381F5D110684006FCD51068FD
:1004400020F0400010607047FFF7E4FEFFF770FFF8
:100450007948C16C41F00601C164784801684FF2E7
:10046000F00221EA020145F2500241EA0201016074
:10047000416821F0CC0141607148016821F0406180
:1004800001606F48016901F40051B1F5005FF8D0D7
:1004900000F05DF84FF0CF024FF000034FF0000482
:1004A00004B400F064F804BC03F10103082B1EBF80
:1004B000092B0A2B641C2AD101B4204618BF00F076
:1004C0004BF801BC33D10A2B08BF0023521EE7D1E1
:1004D0004FF0CF024FF000034FF0930404B400F04C
:1004E00078F804BC03F10103082B1EBF092B0A2B6B
:1004F000641E14D101B4204618BF00F02DF801BCD1
:100500001DD10A2B08BF0023521EE7D1B9E71FB443
:100510004C484FF01601FFF77DFF1FBCCCE71FB41E
:1005200049484FF01601FFF775FF1FBCE2E71FB403
:1005300046484FF00401FFF76DFF1FBCC3E71FB42F
:1005400042484FF00401FFF765FF1FBCD9E74CF2AA
:100550005032013AFDD170473E4D28603EB52846E5
:100560004FF00301FFF756FFBDE83E4070473348A8
:10057000416921F0CC0141F08401416100B5FFF7F0
:10058000E6FF5DF804EB416921F0CC0141F0440144
:10059000416100B5FFF7DBFF5DF804EB416921F035
:1005A000CC0141F04801416100B5FFF7D0FF5DF893
:1005B00004EB416921F0CC0141F08801416100B5B3
:1005C000FFF7C5FF5DF804EB416921F0CC01416103
:1005D00070471A48416921F0CC0141F0880141611E
:1005E00000B5FFF7B4FF5DF804EB416921F0CC01E1
:1005F00041F04801416100B5FFF7A9FF5DF804EB48
:10060000416921F0CC0141F04401416100B5FFF79F
:100610009EFF5DF804EB416921F0CC0141F08401BB
:10062000416100B5FFF793FF5DF804EB416921F0EC
:10063000CC014161704700000010024000040048F6
:100640000008004800000020170000202E000020B5
:100650000000000050000020446972656374696FF7
:100660006E3A2043435709416E676C653A20004457
:100670006972656374696F6E3A2043572009416E51
:10068000676C653A20000A0D0000000000000000C1
:0400000508000449A2
:00000001FF
