:020000040800F2
:100000000006002089010008C5010008C70100089A
:10001000C9010008CB010008CD0100080000000064
:10002000000000000000000000000000CF010008F8
:10003000D101000800000000D3010008D50100082C
:10004000D7010008D7010008D7010008D701000830
:10005000D7010008D7010008D7010008D701000820
:10006000D7010008D7010008D7010008D701000810
:10007000D7010008D7010008D7010008D701000800
:10008000D7010008D7010008D7010008D7010008F0
:10009000D7010008D7010008D7010008D7010008E0
:1000A000D7010008D7010008D7010008D7010008D0
:1000B000D7010008D7010008D7010008D7010008C0
:1000C000D7010008D7010008D7010008D7010008B0
:1000D000D7010008D7010008D7010008D7010008A0
:1000E000D7010008D7010008D7010008D701000890
:1000F000D7010008D7010008D7010008D701000880
:10010000D7010008D7010008D7010008D70100086F
:10011000D7010008D7010008D7010008D70100085F
:10012000D7010008D7010008D7010008D70100084F
:10013000D7010008D7010008D7010008D70100083F
:10014000D7010008D7010008D7010008D70100082F
:10015000D7010008D7010008D7010008D70100081F
:10016000D7010008D7010008D7010008D70100080F
:10017000D7010008D7010008D701000800000000DF
:10018000D7010008D701000816481749174B9942B4
:100190003CBF50F8042B41F8042BF8D314494FF01E
:1001A00000028B4238BF43F8042BFAD3DFF8440037
:1001B000016841F470010160BFF34F8FBFF36F8F8F
:1001C0000D480047FEE7FEE7FEE7FEE7FEE7FEE735
:1001D000FEE7FEE7FEE7FEE708480949094A0A4B41
:1001E00070470000540600080000002000000020B6
:1001F0000006002088ED00E0310600080000002025
:100200000006002000020020000200207047704716
:100210007047000083B042F20001C4F20201086896
:1002200020F007000860086840F00200086041F212
:100230000001C4F20201086840F480700860FFE722
:1002400041F20000C4F2020000684005002801D419
:10025000FFE7F5E71020029041F20401C4F2020129
:10026000086820F0F8500860029A086840EA0260C6
:10027000086041F20001C4F20201086820F08070B9
:100280000860FFE741F20000C4F20200006880014C
:10029000002801D5FFE7F5E741F20C01C4F20201A5
:1002A0000191086820F003000860086840F002002F
:1002B00008600868142262F30E20086008680122B2
:1002C00062F306100860086820F0C06008600868E3
:1002D00040F08070086041F20001C4F20201086839
:1002E00040F080700860FFE741F20000C4F20200B5
:1002F00000688001002801D4FFE7F5E741F208011A
:10030000C4F20201086820F003000860086840F0A9
:1003100003000860FFE741F20800C4F20200006831
:1003200000F00C000C2801D0FFE7F4E741F20801CF
:10033000C4F20201086820F0F0000860086820F4A8
:10034000E0600860086820F46050086041F2000135
:10035000C4F20201086820F080600860FFE741F203
:100360000000C4F2020000684001002801D5FFE748
:10037000F5E741F21001C4F202010091086820F48F
:10038000FE400860086840F4C0500860086840F407
:1003900000300860086840F48030086041F20001D5
:1003A000C4F20201086840F080600860FFE741F293
:1003B0000000C4F2020000684001002801D4FFE7F9
:1003C000F5E741F28801C4F20201086820F4400018
:1003D000086041F26001C4F20201086840F40010B4
:1003E000086003B07047000041F24C01C4F2020102
:1003F000086840F0010008604FF09041086820F064
:10040000F0000860086840F0A00008602021C4F6F1
:100410000001086820F47F400860086840F4EE405E
:1004200008600821C4F60001086840F0F000086088
:100430000C21C4F60001086820F0F00008600421D7
:10044000C4F60001086820F00C0008607047000046
:1004500080B541F25801C4F20201086840F400304E
:10046000086041F28801C4F20201086820F00C0023
:100470000860086840F004000860FFF7B5FF44F228
:100480000040C4F2000000F029F880BD80B582B0C1
:10049000019000910199009A44F20040C4F20000DA
:1004A00000F094F802B080BD82B001900198642100
:1004B000414344F62510C2F29240A1FB0020091AE4
:1004C00000EB510080080090FFE700980138009091
:1004D00008B1FFE7F9E702B07047000081B0009073
:1004E0000099086820F0010008600099086820F071
:1004F000102008600099086820F400400860009906
:10050000486820F440504860009942F28D00C8606D
:100510000099086840F00C000860009844F600411B
:10052000C4F20001884224D1FFE70099086840F036
:10053000200008600099086820F0400008600099D9
:10054000086820F0100008600099086820F080001A
:1005500008600099086820F48070086000990868B5
:1005600020F0400008600099086820F00100086051
:10057000FFE7009844F20041C4F2000188420ED126
:10058000FFE70099086A40F04000086243F608015E
:10059000C4F20101086840F0C0000860FFE700995C
:1005A000086840F001000860FFE70098C069800219
:1005B000002801D4FFE7F8E7FFE70098C069400290
:1005C000002801D4FFE7F8E701B0704780B584B098
:1005D00003900291019200200090FFE7009801999A
:1005E000884216D2FFE7FFE70398C069000600289B
:1005F00001D4FFE7F8E702980099405C0399088569
:100600004FF49670FFF750FFFFE70098013000901D
:10061000E4E7FFE70398C0694006002801D4FFE73C
:10062000F8E70399C86920F04000C86104B080BDB4
:10063000FFF7F0FDFFF70CFF4FF0FF304FF0000128
:100640004FF02A024FF00003841841EB030527B452
:04065000FEE70000C1
:0400000508000631B8
:00000001FF
