:020000040800F2
:100000007006002029020008650200086702000847
:10001000690200086B0200086D0200080000000081
:100020000000000000000000000000006F02000857
:100030007102000800000000730200087502000849
:1000400077020008770200087702000877020008AC
:10005000770200087702000877020008770200089C
:10006000770200087702000877020008770200088C
:10007000770200087702000877020008770200087C
:10008000770200087702000877020008770200086C
:10009000770200087702000877020008770200085C
:1000A000770200087702000877020008770200084C
:1000B000770200087702000877020008770200083C
:1000C000770200087702000877020008770200082C
:1000D000770200087702000877020008770200081C
:1000E000770200087702000877020008770200080C
:1000F00077020008770200087702000877020008FC
:1001000077020008770200087702000877020008EB
:1001100077020008770200087702000877020008DB
:1001200077020008770200087702000877020008CB
:1001300077020008770200087702000877020008BB
:1001400077020008770200087702000877020008AB
:10015000770200087702000877020008770200089B
:10016000770200087702000877020008770200088B
:1001700077020008770200087702000800000000FC
:10018000770200087702000800F002F800F03CF85F
:100190000AA090E8000C82448344AAF10107DA45E2
:1001A00001D100F031F8AFF2090EBAE80F0013F0F8
:1001B000010F18BFFB1A43F0010318479005000018
:1001C000B0050000103A24BF78C878C1FAD85207A9
:1001D00024BF30C830C144BF04680C6070470000C1
:1001E0000023002400250026103A28BF78C1FBD840
:1001F000520728BF30C148BF0B6070471FB500F0E1
:100200009FFA1FBD10B510BD00F053F81146FFF75F
:10021000F5FF00F0FFF900F071F803B4FFF7F2FF0B
:1002200003BC00F079F8000016481749174B9942B3
:100230003CBF50F8042B41F8042BF8D314494FF07D
:1002400000028B4238BF43F8042BFAD3DFF8440096
:10025000016841F470010160BFF34F8FBFF36F8FEE
:100260000D480047FEE7FEE7FEE7FEE7FEE7FEE794
:10027000FEE7FEE7FEE7FEE708480949094A0A4BA0
:10028000704700006C0700080000002010000020EC
:100290007006002088ED00E0890100087000002051
:1002A0007006002070020020700200207047704726
:1002B0007047754600F02CF8AE4605006946534677
:1002C00020F00700854618B020B5FFF7D5FFBDE840
:1002D00020404FF000064FF000074FF000084FF0AD
:1002E000000B21F00701AC46ACE8C009ACE8C0093E
:1002F000ACE8C009ACE8C0098D46704710B50446AB
:10030000AFF300802046BDE81040FFF786BF000035
:10031000004870471000002001491820ABBEFEE7DE
:1003200026000200704700005E49096821F00701BD
:100330005C4A11601146096841F0020111605A4996
:10034000096841F48071584A116000BF5649096834
:1003500001F480610029F9D010205349496821F047
:10036000F851514A51601146496841EA00615160B3
:100370001146096821F08071116000BF4A4909687F
:1003800001F00071B1F1007FF8D04749C96821F050
:100390000301454AD1601146C96841F00201D160AC
:1003A0001146C96821F4FE4141F4A051D1601146C3
:1003B000C96821F0700141F01001D1601146C9688F
:1003C00021F0C061D1601146C96841F08071D160EF
:1003D0001146096841F08071116000BF3249096817
:1003E00001F000710029F9D02F49896821F003013B
:1003F0002D4A91601146896841F00301916000BF68
:100400002949896801F00C010C29F9D1264989682C
:1004100021F0F001244A91601146896821F4E061DD
:1004200091601146896821F4605191601146096814
:1004300021F08061116000BF1B49096801F08061F3
:10044000B1F1806FF8D01849096921F4FE41164ACC
:1004500011611146096941F4C051116111460969E0
:1004600041F4003111611146096941F48031116193
:100470001146096841F08061116000BF0A490968AE
:1004800001F080610029F9D007498831096821F419
:100490004001054AC2F888101146096E41F4001166
:1004A0001166704700200240001002401648C06CE0
:1004B00040F001001449C8644FF09040006820F0FB
:1004C000F0004FF0904108600846006840F0A0003E
:1004D00008600846006A20F47F4008620846006A07
:1004E00040F4EE4008620846806840F0F000886002
:1004F0000846C06820F0F000C8600846406820F058
:100500000C004860704700000010024000B50D4824
:10051000806D40F400300B4988650A4888300068D7
:1005200020F00C00C1F888000846D0F8880040F0A0
:100530000400C1F88800FFF7B9FF034800F010F885
:1005400000BD00000010024000440040642242430D
:100550000723B2FBF3F100BF4A1E111EFCD1704706
:10056000016821F001010160016821F010210160A2
:10057000016821F400410160416821F4405141606B
:1005800042F28D01C160016841F00C0101601E4919
:1005900088421BD1016841F020010160016821F00F
:1005A00040010160016821F010010160016821F043
:1005B00080010160016821F480710160016821F00F
:1005C00040010160016821F0010101600F4988428A
:1005D00009D1016A41F0400101620D49096841F009
:1005E000C0010B4A1160016841F00101016000BFC8
:1005F000C16901F400110029FAD000BFC16901F4FA
:1006000080010029FAD07047004C004000440040AF
:1006100008380140FFF788FEFFF778FF3748C06CC5
:1006200040F005003549C8644FF09040006820F460
:1006300040604FF0904108600846006840F48060D8
:1006400008600846406820F0200048600846C068FE
:1006500020F44060C8602A48006820F040602849C3
:100660000860081D006820F04060091D08604FF018
:100670009040C06820F040604FF09041C860012475
:100680000846406920F02000486104E01C48103012
:10069000006800F40054012CF8D04FF090404069FD
:1006A00040F020004FF09041486104E014481030C1
:1006B000006800F40054002CF8D0002505E0104834
:1006C0001030006800F400546D1C012CF7D04FF07E
:1006D0009040406920F020004FF09041486104E0D4
:1006E00007481030006800F40054002CF8D003E0F4
:1006F0000448006800F008F8FAE700000010024023
:10070000000800480000002010B504464FF090405B
:10071000406940F020004FF0904148612046FFF7CB
:1007200015FF4FF09040406920F020004FF09041BD
:10073000486102480068FFF709FF10BD0000002073
:100740004FF04070E1EE100A704700006C0700089F
:100750000000002010000000C40100087C07000811
:100760001000002060060000E0010008400D0300BA
:0C07700000350C00804F1200801A0600BB
:040000050800018965
:00000001FF
